:020000040800F2
:1000000098120020990100080D4C00089134000856
:10001000094C00087B090008515A00080000000044
:10002000000000000000000000000000B9520008BD
:10003000CD090008000000008D520008BB520008E6
:10004000B3010008B3010008B3010008B3010008C0
:10005000B3010008B3010008B3010008B3010008B0
:10006000B3010008B3010008B3010008B3010008A0
:10007000B3010008B30100088109000891090008D4
:10008000B3010008B3010008B3010008B301000880
:10009000B3010008B3010008B3010008B301000870
:1000A000B3010008B3010008B3010008B301000860
:1000B000B301000849530008B3010008B301000868
:1000C000B3010008A534000895340008B301000806
:1000D000B3010008B3010008B3010008B301000830
:1000E000B3010008B3010008B301000800F002F8F2
:1000F00000F043F80AA090E8000C82448344AAF17F
:100100000107DA4501D100F038F8AFF2090EBAE87C
:100110000F0013F0010F18BFFB1A43F0010318473B
:10012000B86D0000D86D0000103A24BF78C878C1BF
:10013000FAD8520724BF30C830C144BF04680C60ED
:10014000704700000023002400250026103A28BF35
:1001500078C1FBD8520728BF30C148BF0B60704739
:100160001FB500F087FB04000020002105F020FEF1
:10017000401C60601FBD10B510BD00F04DFB114666
:10018000FFF7EEFF05F038FD00F078FB03B4FFF752
:10019000F2FF03BC00F0BCFB094880470948004758
:1001A000FEE7FEE7FEE7FEE7FEE7FEE7FEE7FEE727
:1001B000FEE7FEE704480549054A064B7047000084
:1001C00047530008ED000008980C0020981200200A
:1001D000980E0020980E00200FB400B58DB010A925
:1001E000099000910B904FF0FF300A9000200C9086
:1001F000064878440690064878446A4607900F9966
:1002000009A800F015F90DB05DF814FB5B020000C1
:10021000730200002DE9FF5F1D464FF0FF3B914642
:100220004FF000085F46D5E90146A96901987F1C97
:100230008847296A824688470028F6D1BAF1FF3FED
:100240000CD0002E24F4C06419DD600614D5BAF178
:100250002B0F09D0BAF12D0F0ED103E0584604B090
:10026000BDE8F09F44F48064A96901987F1C884729
:10027000761E8246002E02DDBAF1300F03D0B9F1AE
:10028000000F26D032E0A969761E01987F1C44F445
:1002900000748847002E824605DDBAF1780F06D03B
:1002A000BAF1580F03D0B9F1000F10D01EE0B9F128
:1002B000000F02D0B9F1100F18D1A969761E01986C
:1002C0007F1C24F4007488478246102002E0082036
:1002D00000E00A20814609E0A96908FB0908761EAA
:1002E00001987F1C44F4007488478246002E05DD87
:1002F0004946504600F088F80028EDDAE96901988F
:100300008847A00502D46FF00100A8E7E00725D1D7
:10031000600613D5600502D5C8F1000000E0404634
:1003200029680A1D2A600968220501D5087015E0B0
:10033000220701D5088011E008600FE02868011D40
:1003400029600068210502D580F8008006E02107B9
:1003500002D5A0F8008001E0C0F8008038467EE7B2
:1003600002F0FF0343EA032242EA024200F002B82D
:100370004FF000020429C0F0128010F0030C00F0CE
:100380001B80CCF1040CBCF1020F18BF00F8012B4C
:10039000A8BF20F8022BA1EB0C0100F00DB85FEA1A
:1003A000C17C24BF00F8012B00F8012B48BF00F8E6
:1003B000012B70474FF0000200B513469446964655
:1003C000203922BFA0E80C50A0E80C50B1F1200168
:1003D000BFF4F7AF090728BFA0E80C5048BF0CC016
:1003E0005DF804EB890028BF40F8042B08BF704774
:1003F00048BF20F8022B11F0804F18BF00F8012BE6
:1004000070477047704770473A2800D2303820F064
:100410002002412A01D3A2F13700884201D34FF0D4
:10042000FF30704702681144137801601846704726
:10043000D160054979445161044979441162002130
:100440001161114600F02EB8EDFFFFFF53000000D0
:10045000426842B1016811F8013B23B1521EC0E964
:100460000012184670470121C160881E704742681B
:100470005AB1C368016843B983688B4205D0491EED
:10048000521CC0E90012002070474FF0FF30704747
:1004900010B5044600F0E6F90068005D00F00100C8
:1004A00010BD00002DE9F34F4FF0000A0C465646F0
:1004B0008DB001200C9001F10C000B9062690B983B
:1004C0000121904705002DD0252D2CD0216A884789
:1004D000C0B162690B9801219047216A88470028C2
:1004E000F7D16269411E0B98904700E0761CA16924
:1004F0000D988847216A88470028F7D1E1690D984F
:100500008847DBE7A1690D988847A842074601D1D3
:10051000761CD3E7E1690D9888477F1C02D1BAF1B8
:10052000000F6FD06BE162690B9800273D4639469A
:1005300090472A2804D162690B9801219047012530
:10054000DFF8D08262690B9801219047A0F1300159
:100550000A290AD24745E5DC07EB870100EB410792
:10056000303FDFD445F01005ECE7E90601D46FF029
:1005700000476C280AD04C2814D0682815D06A2867
:100580000DD074281CD07A281AD01DE062690B980F
:10059000012190476C2802D045F0040514E045F095
:1005A00002050DE045F020050AE062690B98012183
:1005B0009047682802D045F0080505E045F400653D
:1005C00062690B9801219047C4E9015765283DD025
:1005D00019DC58287AD00CDC452837D004DC2528D3
:1005E00026D041289ED131E046282FD0472899D1E6
:1005F0002CE05B2877D0612828D063287CD0642841
:1006000023D15AE0F6E06F2848D008DC66281DD0D8
:1006100067281BD0692821D06E2816D127E07028C2
:1006200045D0732868D0752847D078280DD14DE083
:10063000A1690D988847252805463FF469AFE1690F
:100640000D9888476D1C3FF46AAFD8E00D9923469A
:100650006A466FF00100AFF30080C5E045F040004E
:1006600023464FF000026060A80736D43EE0E8075A
:100670007FF447AF2068011D21600068290501D57E
:1006800006701BE7290701D5068017E7A90703D5E0
:10069000F117C0E9006111E706600FE745F040007F
:1006A00023464FF008026060A80716D41EE040F60B
:1006B0000E0125EA0100606016E045F04000234687
:1006C0004FF00A026060A80707D40FE045F0400031
:1006D0006060A80708D5234610220D996FF001002D
:1006E000AFF3008080E007E0102223460D996FF001
:1006F0000100FFF78FFD77E04FF0000963284F46B8
:10070000C8464B46CB4602D05B2806D038E0E80608
:1007100001D40120A060012732E06269D4F80CB056
:100720000B98012190475E2807D14FF001094946F7
:100730006269D4F80CB00B989047216939B900214F
:100740000A4603AB43F82120491C0829FADBD8B339
:10075000216949B308F1010862690B9801219047AA
:100760005D28F4D1B9F1000F09D0002003A951F898
:100770002020D24341F82020401C0828F7DB03AB9F
:100780002069002820794FEA40701ED05B4622463F
:10079000CDF80080CDE901970D9900286FF0010098
:1007A00020DAAFF300801FE0C11703AA00EBD1618C
:1007B0004B1121F01F0102EB8302411A1368012043
:1007C000884003431360C7E719E00D9922460028CB
:1007D0006FF00100009702DAAFF3008004E0AFF39E
:1007E000008001E0AFF3008000280ADA401C06D147
:1007F0000C9820B14FF0FF300FB0BDE8F08F50469D
:10080000FAE7E90701D10AF1010A064400200C9039
:1008100054E60000CCCCCC0C754600F035F8AE4662
:1008200005006946534620F00700854618B020B5FC
:10083000FFF7C0FCBDE820404FF000064FF0000776
:100840004FF000084FF0000B21F00701AC46ACE878
:10085000C009ACE8C009ACE8C009ACE8C0098D46E5
:100860007047000010B500F005F8001D10BD00BF76
:100870004155000000487047580C00200446AFF373
:1008800000802046FFF782FC00487047380C0020AB
:100890004FF0013C50F8042B51F8043B9A4221D10F
:1008A000A2EB0C03934313EACC1317D150F8042B9B
:1008B00051F8043B9A4215D1A2EB0C03934313EA7F
:1008C000CC130BD150F8042B51F8043B9A4209D1B8
:1008D000A2EB0C03934313EACC13DBD04FF00000E0
:1008E000704700BFD01A01BAB1FA81F101F01801C6
:1008F00022FA01F0CB40C1F12001DBB2C0B2C01A34
:100900002CFA01F3D11A914311EAC311E6D17047D1
:1009100001491820ABBEFEE726000200704770B503
:10092000044600252068806800F0010018B32068A4
:10093000806820F001002168886000F08BFE054689
:1009400013E000F087FE401B02280ED92068806863
:1009500000F0010048B1A06A40F01000A062E06A17
:1009600040F00100E062012070BD2068806800F066
:1009700001000028E5D10020F6E700BFFEE70000F7
:1009800010B5024800F064FB10BD000030010020EB
:1009900010B5024800F05CFB10BD0000940200207E
:1009A00030B590F840500124AC40C56B6C600468D1
:1009B00063604468102C04D10468A2600468E1609C
:1009C00003E00468A1600468E26030BD704772B65D
:1009D00000BFFEE72DE9F04F87B06948007890B975
:1009E00005F068F805F052F800224FF40041654820
:1009F00000F02AFE644804F03FFB644804F03CFB2E
:100A000007B0BDE8F08F0122D1035E4800F01CFE64
:100A10005F48007878B15F48006840F2E73188426B
:100A200009D05D480068884205D05A48006810B176
:100A30005948006860B905F03DF805F027F85248BC
:100A400004F01AFB514804F017FB00F0B1F8D7E7A7
:100A50005248006840F2E731884209D050480068A7
:100A6000884205D04D48006810B14D48006850B923
:100A700005F020F805F00AF8434804F0FDFA434871
:100A800004F0FAFABCE74748007801280AD105F0DB
:100A900011F804F0FBFF3C4804F0EEFA3B4804F088
:100AA000EBFAADE73B4800683C490968441A3A480C
:100AB00000683B490968451A002C01DB204600E02C
:100AC00060420690002D01DB284600E06842059058
:100AD000204605F0D3FA3449009005F01BFB20F0C6
:100AE0000048284605F0CAFA3049009005F012FB8C
:100AF00020F0004942460021234804F041FA0490C6
:100B00004A460021214804F03BFA0390049805F07E
:100B100095FA00F15006039805F090FA00F150079D
:100B2000B6F5167F01D94FF41676B7F5167F01D9C1
:100B30004FF41677002C01DC012000E00020029029
:100B4000002D01DC012000E000200190DDF808A06C
:100B5000DDF804B00698012804DD3146504605F062
:100B6000CFF801E004F0A6FF0598012804DD39461E
:100B7000584605F069F801E004F088FF00BF3FE740
:100B8000AA000020000C01401000002038000020C6
:100B9000A900002094000020980000209C00002064
:100BA000A0000020A80000200000E83EEFEE0E3F6D
:100BB00010B51B48006820F000441A49204605F093
:100BC00075FA02D804F076FF0EE0002114480068A0
:100BD00005F06CFB01D3012000E000200446C82191
:100BE000204605F08DF800BF0F48006820F0004453
:100BF0000C49204605F05AFA02D804F047FF0EE0EF
:100C000000210948006805F051FB01D3012000E0F4
:100C100000200446C821204605F016F800BF10BD8C
:100C200060000020CDCC4C3E6400002038B5024668
:100C300000230020009000BF92F82400012801D179
:100C4000022038BD012082F8240000BF4868072830
:100C500012D21068406B0C79641E04EB84051F24CB
:100C6000AC40A0430D796D1E05EB85050C68AC40CA
:100C700020431468606327E048680D2812D210688A
:100C8000006B0C79E41F04EB84051F24AC40A043E7
:100C90000D79ED1F05EB85050C68AC402043146809
:100CA000206311E01068C06A0C790D3C04EB8405E8
:100CB0001F24AC40A0430D790D3D05EB85050C6864
:100CC000AC4020431468E06208680A2812D3106818
:100CD000C0680C780A3C04EB44050724AC40A043F0
:100CE0000D780A3D05EB45058C68AC40204314683F
:100CF000E0600FE0106800690C7804EB44050724FD
:100D0000AC40A0430D7805EB45058C68AC40204312
:100D1000146820610868102802D00868112827D1BB
:100D2000174C1068A0421ED11068806800F40000C3
:100D3000F0B91068806840F400001468A06008688A
:100D4000102815D10F4800680F4CB0FBF4F000EBF1
:100D500080004000009002E00098401E0090009843
:100D60000028F9D104E0906A40F02000906201234D
:100D700000BF002082F8240000BF184661E7000091
:100D8000002401400C00002040420F002DE9F041FA
:100D90000446002700250026A84614B90120BDE816
:100DA000F081A06810B1207D00B100BFA06A30B909
:100DB0000020E06284F82400204600F089F82046F4
:100DC000FFF7ADFD0746A06A00F01000002873D1C0
:100DD000002F71D1A06A20F4885040F00200A06278
:100DE000E16960680843217B40EA41000643A0684E
:100DF000B0F5807F02D0A068012802D14FF4807046
:100E000000E000200543207D012811D1207B38B966
:100E1000A069401E4FF4006141EA4030054307E0FD
:100E2000A06A40F02000A062E06A40F00100E062A9
:100E30002068406820F469402843216848602068A1
:100E4000806821490840304321688860A068B0F577
:100E5000807F02D0A068012802D14FF4807000E0AA
:100E60000020B0F5807F03D1208A401E4FEA005851
:100E70002068C06A20F4700040EA08002168C86257
:100E80002068806811490840B04208D10020E06223
:100E9000A06A20F0020040F00100A06211E0A06A08
:100EA00020F0020040F01000A062E06A40F0010073
:100EB000E062012705E0FFE7A06A40F01000A062B1
:100EC000012738466BE70000FDF7E1FFFE0E1FFF2C
:100ED00010B586B00446002002900390049005905F
:100EE00014492068884222D100BF1348806940F429
:100EF0000070114988610846806900F40070019013
:100F000000BF00BF00BF0846806940F00400886150
:100F10000846806900F00400019000BF00BF022075
:100F200002900320039002A9044800F0F5F906B0EE
:100F300010BD0000002401400010024000080140E4
:100F40000146002291F82100022808D0042088637D
:100F500000BF002081F8200000BF01207047086812
:100F6000006820F00E000B6818600868006820F028
:100F700001000B68186091F8403001209840CB6B5D
:100F80005860012081F8210000BF002081F8200076
:100F900000BF1046E2E7000070B50446002594F853
:100FA0002100022803D00420A063012548E0206826
:100FB000006820F00E00216808602068006820F0BA
:100FC0000100216808601F492068884201D1012082
:100FD00026E01C4914312068884201D110201FE00E
:100FE000184928312068884201D1801518E0154938
:100FF0003C312068884201D1801411E01149503100
:101000002068884202D14FF4803009E00D496431F4
:101010002068884202D14FF4801001E04FF08070C8
:10102000084908394860012084F8210000BF0020E9
:1010300084F8200000BF606B10B12046616B8847C8
:10104000284670BD08000240014691F82100704713
:1010500070B50446E06B05682068066894F8401097
:10106000042088402840002846D006F004000028CC
:1010700042D02068006800F0200028B9206800688D
:1010800020F004002168086057492068884201D197
:10109000042027E0544914312068884201D14020BF
:1010A00020E0514928312068884201D1001519E01B
:1010B0004D493C312068884202D14FF4804011E014
:1010C000494950312068884202D14FF4802009E01C
:1010D000454964312068884202D14FF4800001E024
:1010E0004FF08060404908394860E06A00287AD0B3
:1010F0002046E16A884776E094F840100220884054
:101100002840A0B306F0020088B32068006800F011
:10111000200040B92068006820F00A0021680860BB
:10112000012084F8210030492068884201D1022042
:1011300028E02D4914312068884201D1202021E087
:10114000294928312068884201D140151AE02649F2
:101150003C312068884202D14FF4005012E022490D
:1011600050312068884203D14FF400300AE017E084
:101170001D4964312068884202D14FF4001001E01B
:101180004FF0007018490839486000BF002084F80B
:10119000200000BFA06A30B32046A16A884722E041
:1011A00094F84010082088402840E0B106F008007C
:1011B000C8B12068006820F00E002168086094F82B
:1011C000401001208840E16B48600120A06384F852
:1011D000210000BF002084F8200000BF206B10B168
:1011E0002046216B884770BD08000240014600225E
:1011F00009B901207047164B0868C01A1423B0FBC8
:10120000F3F08000086412480838C863022081F8AF
:1012100021000868026843F6F0708243D1E90103B7
:101220001843CB6818430B6918434B6918438B6903
:101230001843CB69184302430868026000208863A2
:10124000012081F82100002081F8200000BFD1E7B3
:10125000080002402DE9F04104460D4616461F469F
:101260004FF0000800BF94F82000012802D10220AE
:10127000BDE8F081012084F8200000BF94F821002F
:1012800001282CD1022084F821000020A0632068CE
:10129000006820F00100216808603B46324629467C
:1012A0002046FFF77DFBE06A30B12068006840F01F
:1012B0000E00216808600BE02068006820F0040040
:1012C000216808602068006840F00A002168086012
:1012D0002068006840F001002168086006E000BF57
:1012E000002084F8200000BF4FF002084046BFE70E
:1012F00070B5044600F0AEF906462546681C10B1EC
:1013000004480078054400BF00F0A4F9801BA842FF
:10131000FAD370BD080000202DE9F84703460022EB
:1013200094466EE14FF0010808FA02F4D1F800800B
:1013300008EA0400A0427DD1DFF8DCA2D1F80480E5
:10134000A8EB0A09D0453AD014DCB8F1030F50D00D
:1013500009DCB8F1000F31D0B8F1010F1CD0B8F1A1
:10136000020F49D120E0B8F1110F18D0B8F1120FD7
:1013700042D11EE0B9F5881F25D006DCB9F5803FC3
:1013800020D0B9F5801F37D11AE0B9F5001F18D069
:10139000B9F5041F30D117E0D1F80CC02DE0D1F819
:1013A0000C8008F1040C28E0D1F80C8008F1080C3E
:1013B00023E0D1F80C8008F10C0C1EE000BF00BF48
:1013C00000BF00BF00BF00BFD1F80880B8F1000F18
:1013D00002D14FF0040C0BE0D1F80880B8F1010FF6
:1013E00003D14FF0080C1C6102E04FF0080C5C6167
:1013F00003E04FF0000C00E000BF00BFFF2801D861
:10140000984601E003F104084646FF2802D84FEA57
:10141000820803E0A2F108084FEA88084746D6F898
:1014200000804FF00F0909FA07F928EA09080CFAB9
:1014300007F900E088E048EA0908C6F80080D1F81A
:10144000048008F08058B8F1805F7DD100BFDFF8DC
:10145000CC81D8F8188048F00108DFF8C091C9F8AD
:101460001880C846D8F8188008F00108CDF8008028
:1014700000BF00BF4FEAB9384FEA920958F8295027
:101480004FEA82784FEA18794FF00F0808FA09F806
:1014900025EA0805DFF88881434502D14FF00008AE
:1014A00016E0DFF88081434502D14FF001080FE0DC
:1014B000DFF87481434502D14FF0020808E0DFF8FD
:1014C0006C81434502D14FF0030801E04FF004085E
:1014D0004FEA82794FEA197908FA09F848EA0505CE
:1014E000DFF84C814FEA920948F82950D1F804807E
:1014F00008F48018B8F5801F0AD1DFF83881D8F8D1
:10150000008048EA0008DFF82C91C9F8008009E063
:10151000DFF82081D8F8008028EA0008DFF814916D
:10152000C9F80080D1F8048008F40018B8F5001F4D
:1015300010D1DFF8008108F10408D8F8008048EAEB
:101540000008DFF8F09000E05AE009F10409C9F85A
:1015500000800DE0DFF8DC8008F10408D8F8008096
:1015600028EA0008DFF8CC9009F10409C9F80080E6
:10157000D1F8048008F40038B8F5003F0ED1DFF848
:10158000B480A8F10408D8F8008048EA0008DFF821
:10159000A490A9F10409C9F800800DE0DFF8948057
:1015A000A8F10408D8F8008028EA0008DFF8849041
:1015B000A9F10409C9F80080D1F8048008F4803842
:1015C000B8F5803F0ED1DFF86C80A8F10808D8F894
:1015D000008048EA0008DFF85C90A9F10809C9F822
:1015E00000800DE0DFF84C80A8F10808D8F80080F2
:1015F00028EA0008DFF83C90A9F10809C9F8008042
:10160000521CD1F8008028FA02F8B8F1000F7FF4DC
:1016100089AEBDE8F88700000000111000100240FC
:1016200000080140000C014000100140001401407E
:101630000800014008040140024693680B400BB1CA
:10164000012000E0002070470AB1016101E00B04B5
:1016500003617047014800687047000000000020E7
:10166000704770472DE9F84F0446206847692068A5
:10167000D0F80480002594F83E90C7F3002070B1A4
:10168000C8F3002058B145F001056FF4807021685F
:1016900048612068006840F4004021680860C7F392
:1016A000402040B1C8F3002028B145F002056FF496
:1016B000007021684861C7F3802070B3C8F3002030
:1016C00058B3CA46B4F82AB094F83D60206B009035
:1016D000BAF1200F0FD1BBF1000F0CD1212E06D093
:1016E000292E04D0282E06D10098212803D1204687
:1016F00002F010FE11E06FF480602168486145F04F
:101700000405B9F1100F02D0B9F1400F05D12068DE
:10171000006840F4007021680860C7F3C02040B141
:10172000C8F3002028B145F008056FF40060216877
:1017300048612DB1206C28432064204602F010F847
:10174000BDE8F88F2DE9F04705464FF000092868FD
:101750004668D5F82CA095F83E7095F83D80102F7E
:1017600001D0402F75D12868D0F8189028684469B6
:1017700004F0010060B9BAF52A0F02D0BAF12A4F7D
:1017800001D1012000E00020012801D1BDE8F0874F
:1017900004F0010048B1C6F3402030B1284601F002
:1017A00089FE284602F0FCFBB7E0C4F3C00030B16C
:1017B000C6F3402018B1284602F09DFAADE0C4F30C
:1017C000400030B1C6F3402018B1284602F0A8FA14
:1017D000A3E0C9F3800040B32868406800F40060CB
:1017E000B0F5006FE0D0C4F3C01048B1C6F380205C
:1017F00030B1C4F3800018B9284602F010FA8CE02A
:10180000C4F380000028CFD0C6F340200028CBD0FE
:10181000B8F1210F03D1284602F0B1F97DE0402F45
:101820007BD1284602F00BFC77E02868406800F482
:101830000060B0F5006F70D0C4F3801050B1C6F3F3
:10184000802038B1C4F3800020B9284602F015F991
:1018500063E00BE0C4F3800000285ED0C6F34020B4
:1018600000285AD0284602F070F856E0286C10B1D3
:101870002868446904E02868D0F81890286844690A
:10188000C4F3400060B1C6F3402048B1286C10B1E9
:101890002868D0F818904946284602F003FD3CE03D
:1018A000C4F3001030B1C6F3402018B1284602F04E
:1018B00085FD32E0B8F1210F02D0B8F1290F16D121
:1018C000C4F3C01048B1C6F3802030B1C4F3800027
:1018D00018B9284602F0C3FC1FE0C4F38000E0B151
:1018E000C6F34020C8B1284602F0ACFC15E0C4F3B2
:1018F000801048B1C6F3802030B1C4F3800018B91D
:10190000284602F07CFC08E0C4F3800028B1C6F34E
:10191000402010B1284602F065FC00BF36E7704752
:1019200070B504460CB9012070BD94F83D0028B98B
:10193000002084F83C00204600F00CFB242084F8B2
:101940003D002068006820F00100216808602068E0
:10195000006840F40040216808602068006820F4B6
:1019600000402168086000F095FD05465C4960680C
:10197000884206D85B48854201D2012007E000205A
:1019800005E05948854201D2012000E000200128ED
:1019900000D1C9E75548B5FBF0F62068406820F053
:1019A0003F003043216848604D496068884201D853
:1019B000701C07E04FF4967070434FF47A71B0FBDF
:1019C000F1F0401C2168096A21F03F0108432168B9
:1019D000086243496068884214D8681E61684900FB
:1019E000B0FBF1F0401CC0F30B00042801D204202E
:1019F0003DE0681E61684900B0FBF1F0401CC0F397
:101A00000B0034E0A06838B9681E616801EB410141
:101A1000B0FBF1F0401C0AE0681E616801EBC102F6
:101A200002EB0111B0FBF1F0401C40F48040C0F328
:101A30000B0008B901201AE0A06848B9681E616867
:101A400001EB4101B0FBF1F0401CC0F30B000CE0D6
:101A5000681E616801EBC10202EB0111B0FBF1F0FD
:101A6000401CC0F30B0040F4804040F4004021686B
:101A7000C9694CF6FF72914308432168C861D4E9F3
:101A8000070108432168096821F0C0010843216863
:101A90000860D4E9031008432168896848F2FF32DE
:101AA0009143084321688860D4E90501084321680F
:101AB000C96821F0FF0108432168C86020680068F8
:101AC00040F001002168086000202064202084F894
:101AD0003D000020206384F83E0000BF24E70000A2
:101AE000A086010080841E0000093D0040420F00D6
:101AF000704770471CB504460848007868B18021DB
:101B00000748084A127800EBC21001234022CDE9B1
:101B100000017821044800F013F91CBD6A00002080
:101B2000D806002069000020DC0000202DE9F843E1
:101B300004460E46174698460020009094F83D0053
:101B400020286FD1664800681921B0FBF1F04FF4EE
:101B50007A71B0FBF1F000EBC00101EB00100090D6
:101B600000BF0098401E0090009870B900202063CC
:101B7000202084F83D00002084F83E00206C40F0D6
:101B8000200020640220BDE8F88320688069C0F34B
:101B900040000028E5D100BF94F83C00012801D1A5
:101BA0000220F0E7012084F83C0000BF20680068B4
:101BB00000F0010028B92068006840F001002168A9
:101BC00008602068006820F4006021680860212017
:101BD00084F83D00102084F83E00002020646762F5
:101BE000A4F82A80608D20853E48E0626664208DDE
:101BF000002859D0606BB0B13B48616B88623B48AC
:101C0000616B08630020616BC862616B4863238D60
:101C1000D4F800C00CF11002616A606BFFF71AFB88
:101C2000054611E059E0202084F83D00002084F8AA
:101C30003E00206C40F08000206400BF002084F84B
:101C40003C0000BF01209EE7EDB900BF002084F8F2
:101C50003C0000BF2068406840F440702168486044
:101C60002068406840F4006021684860206800688F
:101C700040F48060216808602068006840F480704B
:101C80002168086027E0202084F83D00002084F8C7
:101C90003E00206C40F01000206400BF002084F85B
:101CA0003C0000BF01206EE72068006840F48060BF
:101CB000216808602068006840F48070216808602E
:101CC00000BF002084F83C0000BF2068406840F45A
:101CD000E06021684860002055E7022053E70000DB
:101CE0000C0000200000FFFF0F360008C935000877
:101CF0007047000010B504460D480078072804D14D
:101D000000200C4908700A4908700A48007868B138
:101D100007480078401C064908700748097800EB1E
:101D20008102042378210548FFF700FF10BD000061
:101D3000690000206A000020D80A0020DC00002092
:101D40002DE9FE4F04460E4617469846DDE90C9AEB
:101D500000200290FFF77EFC834694F83D00202887
:101D600075D1784800681921B0FBF1F04FF47A7111
:101D7000B0FBF1F000EBC00101EB0010029000BFDE
:101D80000298401E0290029870B900202063202023
:101D900084F83D00002084F83E00206C40F02000D4
:101DA00020640220BDE8FE8F20688069C0F34000F7
:101DB0000028E5D100BF94F83C00012801D10220A1
:101DC000F0E7012084F83C0000BF2068006800F0C4
:101DD000010028B92068006840F00100216808600F
:101DE0002068006820F4006021680860212084F8E1
:101DF0003D00402084F83E0000202064C4F8249078
:101E0000A4F82AA0608D20854F48E0626664A7642C
:101E1000C4F84C8000202065208D00287ED0606BA7
:101E2000B0B14A48616B88624948616B0863002021
:101E3000616BC862616B4863238DD4F800C00CF1FC
:101E40001002616A606BFFF705FA054611E076E063
:101E5000202084F83D00002084F83E00206C40F0F3
:101E60008000206400BF002084F83C0000BF0120F7
:101E700098E7EDBB232043463A463146CDE9000BB7
:101E8000204602F03FF9B8B1606BFFF785F80546D0
:101E90000020616B88622068006820F480602168FF
:101EA00008600020208560852068006820F001001F
:101EB00021680860012075E700BF002001902068BC
:101EC0004069019020688069019000BF00BF00BF99
:101ED000002084F83C0000BF2068406840F4807017
:101EE000216848602068406840F40060216801E093
:101EF00003E013E04860002054E7202084F83D0010
:101F0000002084F83E00206C40F01000206400BFE8
:101F1000002084F83C0000BF012043E7202084F823
:101F20003D00002084F83E00206C40F0400020641A
:101F300000BF002084F83C0000BF012032E70220EF
:101F400030E700000C0000200000FFFF0F36000803
:101F5000C935000810B586B00446002002900390F1
:101F6000049005902A49206888424FD100BF294833
:101F7000806940F00800274988610846806900F0C0
:101F80000800019000BF00BF4FF440600290122093
:101F900003900320059002A91F48FFF7BDF900BF79
:101FA0001C48C06940F480001A49C8610846C069ED
:101FB00000F48000019000BF00BF18481849086075
:101FC000102048600021164881608021C1600021F6
:101FD000016141618161C161FFF708F908B1FEF754
:101FE000F6FC00BF0E486063446200BF0022114649
:101FF000212000F099F8212000F086F800221146F7
:10200000222000F091F8222000F07EF806B010BDEA
:102010000058004000100240000C01404400024003
:102020003001002070477047034800680349097871
:1020300008440149086070470000002008000020A3
:1020400010B50848006840F01000064908600320F9
:1020500000F0A8F80F2000F007F800F02BF800209F
:1020600010BD00000020024070B504460E48007804
:102070004FF47A71B1FBF0F00C490968B1FBF0F54F
:10208000284600F091FC08B1012070BD102C07D249
:1020900000222146501E00F047F80548046001E088
:1020A0000120F2E70020F0E7080000200C000020EB
:1020B0000400002008B500BF1148806940F001000D
:1020C0000F4988610846806900F00100009000BF58
:1020D00000BF00BF0846C06940F08050C861084694
:1020E000C06900F08050009000BF00BF00BF0549EC
:1020F000486820F0E06040F00070486000BF08BD14
:10210000001002400000014001460846002809DB9B
:1021100000F01F0301229A4043099B0003F1E023D2
:10212000C3F8002100BF70472DE9F05F80460D46DF
:102130001646002703F08EFC074639462A463346EA
:1021400001F00700C0F1070ABAF1040F02D94FF0FD
:10215000040A01E0C0F1070AD14600F1040ABAF10D
:10216000070F02D24FF0000A01E0A0F1030AD446A3
:102170004FF0010A0AFA09FAAAF1010A0AEA020A68
:102180000AFA0CFA4FF0010B0BFA0CFBABF1010B46
:102190000BEA030B4AEA0B042146404603F062FCBB
:1021A000BDE8F09F00BF00F00702064B19684FF62C
:1021B000FF031940044B0B4343EA0221014B196012
:1021C00000BF70470CED00E00000FA05F8B50446CA
:1021D00000260025207800F0010000286BD00027A1
:1021E0004348C06900F0805070B900BF4048C069E2
:1021F00040F080503E49C8610846C06900F08050F8
:10220000009000BF00BF01273A48006800F48070CA
:10221000B0B93848006840F4807036490860FFF76C
:1022200019FA064606E0FFF715FA801B642801D963
:102230000320F8BD2F48006800F480700028F2D019
:102240002B48006A00F440752DB3A08800F440705C
:10225000A84220D02648006A20F440750120264973
:102260000860002008602248056205F0010090B176
:10227000FFF7F0F9064608E0FFF7ECF9801B41F2A2
:102280008831884201D90320D3E71948006A00F059
:1022900002000028F0D01648006A20F440706168FF
:1022A000084313490862012F04D10846C06920F091
:1022B0008050C86100BF207800F00200022807D1DA
:1022C0000B48406820F44040A16808430849486032
:1022D000207800F01000102807D10548406820F44D
:1022E0008000E1680843024948600020A1E700003F
:1022F00000100240007000404004424270B50446A5
:102300000D460CB9012070BD5A48006800F0070066
:10231000A8420ED25748006820F0070028435549CC
:1023200008600846006800F00700A84201D00120BC
:10233000E9E7207800F0020002281DD1207800F0A3
:102340000400042805D14C48406840F4E0604A4944
:102350004860207800F00800082805D14648406809
:1023600040F46050444948604348406820F0F00021
:10237000A168084340494860207800F0010078B324
:102380006068012806D13C48006800F4003090B92C
:102390000120B8E76068022806D13748006800F0DD
:1023A000007040B90120AEE73348006800F0020039
:1023B00008B90120A7E73048406820F003006168B1
:1023C00008432D494860FFF745F9064609E0FFF745
:1023D00041F9801B41F28831884202D9032092E7FB
:1023E00007E02548406800F00C006168B0EB810F01
:1023F000EDD12048006800F00700A8420ED91D4822
:10240000006820F0070028431A4908600846006861
:1024100000F00700A84201D0012074E7207800F006
:102420000400042807D11448406820F4E060E16803
:10243000084311494860207800F00800082808D1B6
:102440000D48406820F46050216940EAC1000A4903
:10245000486000F03FF808494968C1F30311074A92
:10246000515CC8400649086006480068FFF7FCFD5B
:10247000002048E700200240001002400C640008E1
:102480000C00002004000020014800687047000094
:102490000C00002000B5FFF7F7FF04494968C1F3BD
:1024A0000221034A515CC84000BD000000100240F8
:1024B0001C64000800B5FFF7E7FF04494968C1F351
:1024C000C221034A515CC84000BD00000010024018
:1024D0001C64000870B500210022002400230020A5
:1024E000134D696801F00C05F5B1042D02D0082DDB
:1024F00019D101E00F4819E00F4DC1F38346AB5DE0
:1025000001F4803555B10A4D6D68C5F340450B4E59
:10251000725D084D5D43B5FBF2F402E0084D03FB2C
:1025200005F4204602E000BF024800BF00BF70BDB6
:102530000010024000127A00FA6300080A640008E2
:1025400000093D00F8B504460CB90120F8BD20781B
:1025500000F00100002878D0F848406800F00C0036
:1025600004280CD0F548406800F00C00082811D170
:10257000F248406800F48030B0F5803F0AD1EF485F
:10258000006800F4003000285FD0606800285CD14B
:102590000120DBE700BF6068B0F5803F06D1E74867
:1025A000006840F48030E549086028E0606858B968
:1025B000E248006820F48030E0490860084600687E
:1025C00020F4802008601AE06068B0F5A02F0BD1DD
:1025D000DA48006840F48020D8490860084600685E
:1025E00040F4803008600AE0D448006820F480306D
:1025F000D24908600846006820F48020086000BFC7
:10260000606888B1FFF726F8054606E0FFF722F874
:10261000401B642801D9032098E7C848006800F4EB
:1026200000300028F2D010E0FFF714F8054606E06D
:10263000FFF710F8401B642801D9032086E7BF4844
:10264000006800F400300028F2D1207800F0020089
:10265000022857D1B948406800F00C0050B1B74883
:10266000406800F00C00082818D1B448406800F415
:10267000803098B9B148006800F0020020B12069AC
:10268000012801D0012061E7AC48006820F0F80083
:10269000616940EAC100A949086033E02069E8B1F6
:1026A0000120A7490860FEF7D5FF054606E0FEF7C2
:1026B000D1FF401B022801D9032047E79F4800684B
:1026C00000F002000028F2D09C48006820F0F800DA
:1026D000616940EAC1009949086013E00020984907
:1026E0000860FEF7B7FF054606E0FEF7B3FF401BA4
:1026F000022801D9032029E79048006800F0020071
:102700000028F2D1207800F0080008282DD1A06917
:10271000B8B101208B490860FEF79CFF054606E032
:10272000FEF798FF401B022801D903200EE78348DB
:10273000406A00F002000028F2D0012002F0A8FD5B
:1027400013E000207F490860FEF784FF054606E09D
:10275000FEF780FF401B022801D90320F6E67748E8
:10276000406A00F002000028F2D1207800F0040056
:10277000042873D100277148C06900F0805070B9F7
:1027800000BF6E48C06940F080506C49C86108467F
:10279000C06900F08050009000BF00BF01276A4868
:1027A000006800F48070B0B96748006840F4807039
:1027B00065490860FEF74EFF054606E0FEF74AFF52
:1027C000401B642801D90320C0E65F48006800F47C
:1027D00080700028F2D000BFE068012806D1574879
:1027E000006A40F001005549086227E0E06858B9E6
:1027F0005248006A20F00100504908620846006A09
:1028000020F00400086219E0E06805280BD14B486D
:10281000006A40F00400494908620846006A40F036
:10282000010008620AE04548006A20F001004349BF
:1028300008620846006A20F00400086200BFE068F1
:10284000A0B1FEF707FF054609E0FEF703FF401BB6
:1028500041F28831884202D9032077E622E03748E6
:10286000006A00F002000028EFD012E0FEF7F2FE4E
:10287000054608E0FEF7EEFE401B41F28831884233
:1028800001D9032062E62D48006A00F0020000280A
:10289000F0D1012F05D12948C06920F08050274987
:1028A000C86100BFE069C8B32448406800F00C006C
:1028B000082860D0E069022848D100202049086635
:1028C000FEF7C8FE054606E0FEF7C4FE401B0228E0
:1028D00001D903203AE61948006800F0007000288A
:1028E000F2D1206AB0F5803F07D11448406820F447
:1028F0000030A168084311494860D4E90801084341
:102900000E49496821F4741108430C4948600120BC
:102910000B490866FEF79EFE054607E03DE0FEF720
:1029200099FE401B022801D903200FE603480068E6
:1029300000F000700028F2D02FE0000000100240EC
:1029400000004242800442420070004000201449CE
:102950000866FEF77FFE054606E0FEF77BFE401B9D
:10296000022801D90320F1E50E48006800F000704C
:102970000028F2D111E0E069012800D1E6E509481C
:10298000466806F48031206A814204D106F4701151
:10299000606A814201D00120D8E50020D6E5000020
:1029A000000042420010024070B504462546681EF1
:1029B000B0F1807F01D301200FE0681E4FF0E021CD
:1029C00048610F214FF0FF3003F04CF800204FF02A
:1029D000E021886107200861002070BD70477047C2
:1029E00030B502460B4600BF92F83C00012801D1E9
:1029F000022030BD012082F83C0000BF022082F896
:102A00003D00106844681068816824F070041868FC
:102A1000044310684460104D1068A8420BD0106841
:102A2000B0F1804F07D00D4D1068A84203D00C4D77
:102A30001068A84205D121F0800158680143106850
:102A40008160012082F83D0000BF002082F83C0038
:102A500000BF00BFCDE70000002C01400004004093
:102A60000008004010B504460CB9012010BD94F8D0
:102A70003D0028B9002084F83C00204600F026F8EC
:102A8000022084F83D00211D206802F065FC012031
:102A900084F8460000BF84F83E0001213F20015524
:102AA000402001554120015500BF00BF012084F89E
:102AB000420043200155442001554520015500BFE7
:102AC000012084F83D000020D0E7000038B504461E
:102AD0001F49206888420DD100BF1E48806940F41C
:102AE00000601C4988610846806900F4006000901D
:102AF00000BF2CE018492068884216D100BF154855
:102B0000C06940F002001349C8610846C06900F07E
:102B10000200009000BF00BF002211461D20FFF7F9
:102B200003FB1D20FFF7F0FA11E00C4920688842F2
:102B30000DD100BF0748C06940F004000549C861D5
:102B40000846C06900F00400009000BF00BF38BD17
:102B5000002C01400010024000040040000800402A
:102B6000014691F83D00012801D001207047022064
:102B700081F83D00124B086898420BD00868B0F10C
:102B8000804F07D00F4B0868984203D00E4B08685F
:102B900098420CD10868806800F00702062A0CD021
:102BA0000868006840F001000B68186005E00868DC
:102BB000006840F001000B6818600020D6E70000B4
:102BC000002C01400004004000080040014600BF06
:102BD0000868006A41F21112104050B90868006A92
:102BE0009210104028B90868006820F001000A68B7
:102BF000106000BF012081F83D00002070472DE9E2
:102C0000F04104460D46002700BF94F83C0001281F
:102C100002D10220BDE8F081012084F83C0000BF11
:102C2000022084F83D002068866826F0770626F4A6
:102C30007F46206886602868502833D00CDC202826
:102C400050D004DC00284BD0102851D149E0302866
:102C500049D040284CD139E060282DD0702807D0C9
:102C6000B0F5805F03D0B0F5005F41D10DE041E0E9
:102C7000D5E902136A68206802F0C1FB2068866803
:102C800046F077062068866034E0D5E902136A686A
:102C9000206802F0B4FB2068806840F4804021681E
:102CA000886027E0EA686968206802F079FC5021B2
:102CB000206802F0AFFB1DE0EA686968206802F056
:102CC00082FC6021206802F0A5FB13E0EA686968D5
:102CD000206802F065FC4021206802F09BFB09E0BF
:102CE00000BF00BF00BF2968206802F093FB01E02D
:102CF000012700BF00BF012084F83D0000BF002075
:102D000084F83C0000BF384684E7704770B504463D
:102D10002068C5682068066906F00200022819D1FB
:102D200005F00200022815D1401F2168086101202A
:102D300020772068806900F0030018B12046FFF773
:102D4000E4FF05E0204600F0E3F8204600F097F9A4
:102D50000020207706F00400042819D105F00400B3
:102D6000042815D1C043216808610220207720681B
:102D7000806900F4407018B12046FFF7C6FF05E0F7
:102D8000204600F0C5F8204600F079F900202077B1
:102D900006F00800082819D105F00800082815D108
:102DA000C04321680861042020772068C06900F0D2
:102DB000030018B12046FFF7A8FF05E0204600F009
:102DC000A7F8204600F05BF90020207706F01000FD
:102DD000102819D105F01000102815D1C043216822
:102DE0000861082020772068C06900F4407018B19D
:102DF0002046FFF78AFF05E0204600F089F82046CC
:102E000000F03DF90020207706F0010048B105F000
:102E1000010030B16FF0010021680861204600F028
:102E200039FA06F08000802809D105F0800080285A
:102E300005D1C043216808612046FFF7CFFD06F0A9
:102E40004000402809D105F04000402805D1C0438A
:102E500021680861204600F01EFA06F020002028B4
:102E600009D105F02000202805D1C0432168086160
:102E70002046FFF7B4FD70BD10B586B004460020B3
:102E800002900390049005901C492068884217D155
:102E900000BF1B48806940F004001949886108465A
:102EA000806900F00400019000BF00BF4020029044
:102EB00002200390059002A91248FEF72DFA1AE0AD
:102EC00011492068884216D100BF0D48806940F042
:102ED00008000B4988610846806900F008000190ED
:102EE00000BF00BF4020029002200390059002A97D
:102EF0000648FEF711FA06B010BD000000040040BD
:102F0000001002400008014000080040000C014091
:102F100070472DE9F04104460D461646002700BFD4
:102F200094F83C00012802D10220BDE8F081012084
:102F300084F83C0000BF36B1042E1BD0082E31D0DF
:102F40000C2E5ED145E02946206802F06DFA20681B
:102F5000806940F00800216888612068806920F05D
:102F60000400216888612068806929690843216814
:102F7000886148E02946206802F086FA2068806966
:102F800040F40060216888612068806920F48060D6
:102F90002168886120688069296940EA01202168E8
:102FA000886130E02946206802F0A2FA2068C069F2
:102FB00040F008002168C8612068C06920F0040062
:102FC0002168C8612068C069296908432168C8610F
:102FD00019E02946206802F0BFFA2068C06940F471
:102FE00000602168C8612068C06920F480602168A1
:102FF000C8612068C069296940EA01202168C86168
:1030000001E0012700BF00BF00BF002084F83C00A2
:1030100000BF384689E710B504460CB9012010BD41
:1030200094F83D0028B9002084F83C00204600F0C8
:1030300025F8022084F83D00211D206802F08CF95B
:10304000012084F8460000BF84F83E0001213F20A3
:103050000155402001554120015500BF00BF01200E
:1030600084F8420043200155442001554520015574
:1030700000BF012084F83D000020D0E77047704772
:10308000F0B504460D46002615B994F83E000BE055
:10309000042D02D13F20005D06E0082D02D1402022
:1030A000005D01E04120005D012801D00120F0BD5C
:1030B0001DB9022084F83E000EE0042D03D1022148
:1030C0003F20015508E0082D03D102214020015581
:1030D00002E002214120015535B1042D0BD0082D0D
:1030E00010D00C2D1CD114E02068C06840F0020004
:1030F0002168C86016E02068C06840F004002168BC
:10310000C8600FE02068C06840F008002168C8600F
:1031100008E02068C06840F010002168C86001E045
:10312000012600BF00BF76BB01222946206802F0BD
:1031300055F919492068884201D1012000E000209A
:1031400028B12068406C40F400402168486412496E
:10315000206888420BD02068B0F1804F07D00F491B
:103160002068884203D00E49206888420CD120682C
:10317000806800F00707062F0CD02068006840F038
:1031800001002168086005E02068006840F0010047
:103190002168086030468AE7002C014000040040A6
:1031A0000008004070B504460D46002635B1042DD8
:1031B0000BD0082D10D00C2D1CD114E02068C06855
:1031C00020F002002168C86016E02068C06820F086
:1031D00004002168C8600FE02068C06820F0080083
:1031E0002168C86008E02068C06820F010002168ED
:1031F000C86001E0012600BF00BF002E46D10022BA
:103200002946206802F0EAF821492068884201D165
:10321000012000E0002090B100BF2068006A41F268
:103220001111084050B92068006A8910084028B977
:103230002068406C20F400402168486400BF00BF53
:103240002068006A41F21111084050B92068006AF4
:103250008910084028B92068006820F00100216822
:10326000086000BF1DB9012084F83E000EE0042D67
:1032700003D101213F20015508E0082D03D1012190
:103280004020015502E0012141200155304670BD2A
:10329000002C014070477047704770B50446002508
:1032A00020684069C0F3C01594F84100212817D167
:1032B000B5B100BF00BF2168143151E8001F21F0F3
:1032C00080002168143141E80002002AF3D100BFD8
:1032D000A06B10B1A06BFDF733FE204602F051FA4F
:1032E00020684069C0F3801594F84200222817D165
:1032F000B5B100BF00BF2168143151E8001F21F0B3
:1033000040002168143141E80002002AF3D100BFD7
:10331000E06B10B1E06BFDF713FE204602F0FBF905
:10332000002070BD704710B504460CB9012010BDD7
:10333000A06900B100E000BF94F8410028B9002066
:1033400084F84000204600F029F8242084F8410049
:103350002068C06820F400502168C860204602F050
:1033600023FA2068006920F49040216808612068F1
:10337000406920F02A00216848612068C06840F454
:1033800000502168C86000206064202084F841005B
:1033900084F842000020606300BFC8E710B586B023
:1033A000044600200290039004900590274920686D
:1033B000884249D100BF2648806940F480402449B2
:1033C00088610846806900F48040019000BF00BF1A
:1033D00000BF0846806940F00400886108468069A3
:1033E00000F00400019000BF00BF481502900220C9
:1033F00003900320059002A91648FDF78DFF4FF4B6
:103400008060029000200390049002A91148FDF70B
:1034100083FF1148114908600020486000210F48CF
:1034200081608021C16000210161416181614FF4AF
:103430008051C161FDF7DAFE08B1FDF7C8FA00BF9F
:103440000648E063446200BF06B010BD003801408A
:103450000010024000080140580002409402002081
:1034600070B504460D46164694F8420020280BD14C
:1034700005B10EB9012070BD0020206332462946F7
:10348000204602F00FFAF6E70220F4E77047704793
:1034900000BFFEE710B50248FEF7E4F810BD0000DB
:1034A000DC00002010B50248FEF74CF910BD00000A
:1034B000DC000020C16AB1F52A0F02D10121C162EE
:1034C00005E0C16AB1F12A4F01D10821C1627047FC
:1034D000F8B50546002000906C6A94F83D603948C4
:1034E00000681921B0FBF1F04FF47A71B0FBF1F0F4
:1034F000C0EBC00000EB8000009000BF009820B936
:10350000206C40F02000206409E00098401E0090EC
:103510002068006800F40070B0F5007FEED000BFB6
:10352000606B10B10020616B8862A06B10B100204D
:10353000A16B88622068006820F4806021680860C0
:1035400000206085606B10B10020616B4863A06B48
:1035500010B10020A16B48632068006820F00100D2
:103560002168086094F83D0060280AD1202084F882
:103570003D00002084F83E0020642046FEF770F8ED
:103580001EE006F02800282811D12068006840F0CD
:103590000100216808602068006840F480602168AC
:1035A000086000202063282084F83D0005E02020EA
:1035B00084F83D00002084F83E002046FEF7AFF975
:1035C000F8BD00000C00002070B505466C6A606B09
:1035D00010B10020616B8862A06B10B10020A16B5C
:1035E00088622068006820F48060216808600020FC
:1035F0006085202084F83D00002084F83E00206C87
:1036000040F0100020642046FEF789F970BD2DE9D6
:10361000F04107467C6A94F83D6094F83E80E56A84
:103620002068406820F4407021684860606B10B1E9
:103630000020616B8862A06B10B10020A16B8862D2
:1036400006F02100212806D006F02200222826D1EB
:10365000B8F1200F23D12068406820F40060216871
:10366000486000206085292E08D121202063282071
:1036700084F83D002046FEF7D6FC09E02A2E07D14B
:1036800022202063282084F83D002046FEF7CAFC53
:103690002068406840F440702168486054E094F825
:1036A0003E00002850D0608D012805D120680068B8
:1036B00020F48060216808602068406820F4407031
:1036C0002168486015F5803F06D0082D04D0B5F17B
:1036D0002A4F01D0202D05D12068006840F40070E9
:1036E000216808602068406820F4805021684860A4
:1036F0002068406820F400602168486000206085F0
:10370000206C18B12046FEF70AF91DE0202084F84D
:103710003D0094F83E00402807D1002084F83E0088
:1037200020632046FEF7E4FA0EE0002084F83E0015
:10373000082D01D0202D02D10020206301E01220AD
:1037400020632046FEF7D5F9BDE8F081016849699C
:10375000C1F3C01111B1002102681161704700006E
:103760002DE9F041044694F83D6094F83E70102F26
:1037700001D0402F07D1222E05D12068006820F407
:1037800000602168086006F02800282805D1002084
:103790002063282084F83D0010E02068406800F491
:1037A0000060B0F5006F07D0602E05D0202084F8AF
:1037B0003D00002084F83E0000202063206840681F
:1037C00000F40060B0F5006F40D12068406820F43C
:1037D000006021684860606B90F82100012814D0D7
:1037E0004848616B4863606BFDF7D6FB00285BD0EF
:1037F0002068006820F0010021680860202084F81B
:103800003D00606B416B88474EE03E48A16B4863CA
:10381000A06BFDF7C1FB002846D020684069C0F3CB
:10382000801030B120680069616A0870606A401CCD
:1038300060622068006820F0010021680860202094
:1038400084F83D00A06B416B88472DE094F83D0063
:1038500060281AD1202084F83D00002020642068D0
:103860004069C0F3801030B120680069616A087057
:10387000606A401C60622068006820F001002168D6
:1038800008602046FDF7ECFE0EE020684069C0F3BA
:10389000801030B120680069616A0870606A401C5D
:1038A00060622046FEF73BF8256C05F0010058B930
:1038B00005F00200022807D005F00400042803D018
:1038C00005F00800082805D12068406820F4E06071
:1038D0002168486094F83D60206C00F004000428E2
:1038E0000ED1282E0CD10848E06200202063202051
:1038F00084F83D00002084F83E002046FEF7F8F8EA
:10390000BDE8F081D13400080000FFFF01460868DF
:103910004069C0F38020B0B16FF480600A685061E4
:1039200000200863202081F83D00002081F83E003F
:10393000086C40F00400086400BF002081F83C00DF
:1039400000BF012070470020FCE770B50446E56A1F
:10395000608D042810D12068406820F480602168C0
:10396000486020680069616A0870606A401C606293
:10397000608D401E60857FE0608D03281AD120682D
:10398000406820F4806021684860042D07D0022D33
:1039900005D02068006820F48060216808602068F5
:1039A0000069616A0870606A401C6062608D401E38
:1039B000608561E0608D022854D1012D01D0102D69
:1039C00006D12068006820F480602168086010E05B
:1039D000042D01D0022D06D12068006840F48060DB
:1039E0002168086005E02068006840F400702168E4
:1039F000086020680069616A0870606A401C606243
:103A0000608D401E608520680069616A0870606A88
:103A1000401C6062608D401E60852068406820F414
:103A2000407021684860202084F83D0094F83E00F2
:103A3000402807D1002084F83E0020632046FEF78E
:103A400057F919E0002084F83E00082D01D0202D00
:103A500002D10020206301E0122020632046FEF7FF
:103A600048F809E020680069616A0870606A401CD3
:103A70006062608D401E608570BD70B5044694F82C
:103A80003D0022287AD1E66A658D032D13D920687E
:103A90000069616A0870606A401C6062608D401E47
:103AA0006085608D032868D12068406820F48060BC
:103AB0002168486061E0E06A022858D0012D01D0F9
:103AC000002D54D1204600F01BFEA0BB20680068EA
:103AD00020F48060216808602068406820F4E0607D
:103AE0002168486020680069616A0870606A401C4B
:103AF0006062608D401E6085202084F83D0094F84F
:103B00003E00402807D1002084F83E002063204674
:103B1000FEF7EEF831E0002084F83E00082E01D0D8
:103B2000202E02D10020206301E0122020632046D5
:103B3000FDF7DFFF21E0FFE72068406820F4E06048
:103B40002168486020680069616A0870606A401CEA
:103B50006062608D401E6085202084F83D0000205A
:103B600084F83E002046FDF7DAFE06E006E0206815
:103B7000406820F480602168486000BF70BD70B567
:103B80000446E56A94F83D00212847D1608D50B184
:103B9000606A007821680861606A401C6062608D1C
:103BA000401E60853AE0082D16D0202D14D015F562
:103BB000803F11D02068406820F4E06021684860B0
:103BC00011202063002084F83E00202084F83D006E
:103BD0002046FDF78FFF21E02068406820F4E06078
:103BE000216848602068006840F40070216808601F
:103BF00000202063202084F83D0094F83E004028F7
:103C000006D1002084F83E002046FEF773F805E058
:103C1000002084F83E002046FDF76CFF70BD2DE9C2
:103C2000F041044694F83D5094F83E70E66A208DC9
:103C3000B0BB212D3CD1082E16D0202E14D016F565
:103C4000803F11D02068406820F4E060216848601F
:103C500011202063002084F83E00202084F83D00DD
:103C60002046FDF747FF44E02068406820F4E0600C
:103C7000216848602068006840F40070216808608E
:103C800000202063202084F83D0094F83E00402866
:103C900007D1002084F83E002046FEF72BF828E0EC
:103CA00006E0002084F83E002046FDF723FF20E0D8
:103CB000212D03D0402F1CD1222D1AD1608D30B977
:103CC0002068406820F480602168486011E094F822
:103CD0003E00402803D1204600F0B1F909E0606AB7
:103CE000007821680861606A401C6062608D401E37
:103CF0006085BDE8F081416CC9B202681161416B19
:103D000011B1416B896A21B9816B41B1816B896ABB
:103D100029B10168496841F4006102685160704747
:103D200038B590F83E20C16A036B90F83D40222CD4
:103D300073D1046D64B9402A0AD100BF00240094F5
:103D40000468646900940468A469009400BF26E1D3
:103D5000046DC4B90469B4F5404F14D100BF002408
:103D600000940468646900940468A469009400BF26
:103D700000BF0468246844F4807405682C60046DF6
:103D8000641C04650BE1448D8CB900BF00240094D1
:103D90000468646900940468A469009400BF00BFCB
:103DA0000468246844F4007405682C60E9E0448DDC
:103DB000012C72D111F5803F30D10468246824F4BD
:103DC000806405682C600468646804F40064B4F5D9
:103DD000006F10D10468246824F4806405682C60A6
:103DE00000BF002400940468646900940468A46916
:103DF000009400BFC5E000BF00240094046864691B
:103E000000940468A469009400BF00BF046824689B
:103E100044F4007405682C60B3E0B5E0082923D0B1
:103E2000202921D0122B01D101291DD104290AD02A
:103E3000022908D0102906D00468246824F480647C
:103E400005682C6005E00468246844F48064056813
:103E50002C6000BF00240094046864690094046826
:103E6000A469009400BF8CE00468246824F4806492
:103E700005682C6000BF0024009404686469009405
:103E80000468A469009400BF00BF0468246844F477
:103E9000007405682C6074E0FFE7448D022C47D164
:103EA00004291BD0022919D0102917D004682468CE
:103EB00044F4006405682C6000BF0024009404688A
:103EC000646900940468A469009400BF00BF04689A
:103ED000246824F4806405682C6010E00468246879
:103EE00044F4806405682C6000BF002400940468DA
:103EF000646900940468A469009400BF00BF04686A
:103F0000646804F40064B4F5006F3AD111F5803FA1
:103F100007D0012905D0082903D0102901D0202974
:103F20002FD10468646844F4805405686C6028E00C
:103F30000468246844F4806405682C60046864683C
:103F400004F40064B4F5006F10D111F5803F07D080
:103F5000012905D0082903D0102901D0202905D135
:103F60000468646844F4805405686C6000BF0024F1
:103F700000940468646900940468A469009400BF14
:103F800000BF002404650AE000BF00240094046818
:103F9000646900940468A469009400BF00BF38BD40
:103FA00090F83E1040290ED1016D29B9416C01F005
:103FB000FE010268116141E0416CC9B241F00101AA
:103FC000026811613AE00169B1F5804F20D190F8A3
:103FD0003D10212905D1416C01F0FE0102681161FB
:103FE00005E0416CC9B241F0010102681161416B09
:103FF00011B1416B896A21B9816BF9B1816B896A11
:10400000E1B10168496841F400610268516015E05E
:10401000016D41B9416C01F44071F02242EAE111B5
:10402000026811610AE0016D012907D1416C01F4B8
:104030004071F12242EAE11102681161704770B5E6
:10404000044694F83D50206D98B9E06C012807D1E2
:10405000A06CC0B221680861206D801C206550E012
:10406000A06CC0F3072021680861206D401C20650A
:1040700047E0206D012807D1A06CC0B2216808611B
:10408000206D401C20653CE0206D022836D1222D99
:1040900009D12068006840F4807021680860206DB4
:1040A000401C20652DE0608D60B1212D0AD1606A31
:1040B000007821680861606A401C6062608D401E63
:1040C00060851EE0608DE0B9212D1AD1206840681E
:1040D00020F4E060216848602068006840F40070C7
:1040E0002168086000202063202084F83D00002023
:1040F00084F83E002046FDF7FDFD02E02046FFF774
:1041000025FB70BD2DE9F8430446884615469946BF
:10411000DDE908672068006840F480702168086065
:10412000334600224FF001112046009700F00CFAB0
:1041300060B12068006800F48070B0F5807F02D123
:104140004FF4007020640320BDE8F88308F0FE00FF
:10415000216808613B4632462149204600F053FA67
:1041600008B10120F0E700BF0020009020684069FE
:10417000009020688069009000BF00BF3A46314639
:10418000204600F0E5FA50B1206C042805D12068E3
:10419000006840F40070216808600120D4E7B9F19C
:1041A000010F03D1E8B22168086117E0C5F30720C9
:1041B000216808613A463146204600F0C9FA50B1FC
:1041C000206C042805D12068006840F40070216844
:1041D00008600120B8E7E8B2216808610020B3E771
:1041E00002000100418D49B101680969426A1170FC
:1041F000416A491C4162418D491E4185704770B535
:10420000044694F83D50608DD8B120680069616A19
:104210000870606A401C6062608D401E6085608D21
:1042200078B92A2D0DD12068406820F4806021687B
:10423000486022202063282084F83D002046FDF7B6
:10424000F1FE70BD418D49B1416A09780268116182
:10425000416A491C4162418D491E4185704770B5D4
:10426000044694F83D50608DD8B1606A00782168AA
:104270000861606A401C6062608D401E6085608DD0
:1042800078B9292D0DD12068406820F4806021681C
:10429000486021202063282084F83D002046FDF757
:1042A000C2FE70BDF8B504460D46002794F83D00E7
:1042B00000F0280028281CD12068406820F4806085
:1042C00021684860C5F3800000B90127C5F3C0101C
:1042D00010B9A08986B201E0208B86B200BF002011
:1042E00084F83C0000BF324639462046FDF7B9F954
:1042F0000FE000BF00200090206840690090206817
:104300008069009000BF00BF00BF002084F83C001F
:1043100000BFF8BD70B5044694F83D50E66A082E1B
:1043200001D0202E1FD1282D1DD12348E062206806
:10433000406820F4E060216848606FF48060216884
:1043400048612068006820F48060216808600020CF
:104350002063202084F83D00002084F83E002046A1
:10436000FDF7C6FB26E0212D20D11348E062212075
:104370002063202084F83D00002084F83E0020685F
:10438000406820F4E060216848606FF48060216834
:1043900048612068006820F4806021680860204639
:1043A000FFF7D4F92046FDF73EFE03E06FF480608E
:1043B0002168486170BD00000000FFFF38B5044669
:1043C00094F83D502068406820F4E060216848601F
:1043D00000BF0020009020684069009020680068BD
:1043E00040F001002168086000BF00BF206800683D
:1043F00020F48060216808602068406800F4006054
:10440000B0F5006F42D1222D01D02A2D1FD1A06B13
:10441000006840686085608D18B1206C40F0040031
:1044200020642068406820F4006021684860A06B28
:10443000FCF70AFE012829D04148A16B4863A06B14
:10444000FCF7AAFD10B3A06B416B88471EE0606BC0
:10445000006840686085608D18B1206C40F00400F1
:1044600020642068406820F4006021684860606B28
:10447000FCF7EAFD012809D03148616B4863606BA5
:10448000FCF78AFD10B1606B416B8847608D18B3F3
:1044900020684069C0F3800048B120680069616A03
:1044A0000870606A401C6062608D401E60852068F4
:1044B0004069C0F3801048B120680069616A0870E3
:1044C000606A401C6062608D401E6085608D18B11E
:1044D000206C40F004002064206C18B12046FFF7E7
:1044E0003FF92BE02A2D07D100202063282084F8F3
:1044F0003D002046FDF796FD94F83D0028280DD19B
:104500001048E06200202063202084F83D00002055
:1045100084F83E002046FDF7EBFA0FE0206B2228DE
:1045200001D0222D0AD100202063202084F83D00F4
:10453000002084F83E002046FDF774FD38BD0000E1
:10454000D13400080000FFFF2DE9F04104460D467C
:1045500017461E46DDF8188038E0701CA8B3FDF73A
:1045600079F8A0EB0800B04200D876BBC5F307404D
:1045700001280AD120684069A9B20840A9B288423E
:1045800001D101200BE0002009E020688069A9B278
:104590000840A9B2884201D1012000E00020B842C1
:1045A00014D100202063202084F83D00002084F8EE
:1045B0003E00206C40F02000206400BF002084F802
:1045C0003C0000BF0120BDE8F081FFE7C5F30740D4
:1045D00001280AD120684069A9B20840A9B28842DE
:1045E00001D101200BE0002009E020688069A9B218
:1045F0000840A9B2884201D1012000E00020B84261
:10460000ABD00020DFE72DE9F04104460D46164609
:104610001F4658E020684069C0F38020E8B1206858
:10462000006840F40070216808606FF480602168C1
:10463000486100202063202084F83D00002084F899
:104640003E00206C40F00400206400BF002084F88D
:104650003C0000BF0120BDE8F081701C90B3FCF766
:10466000F9FFC01BB04200D866BBC5F30740012864
:104670000AD120684069A9B20840A9B2884201D194
:1046800001200BE0002009E020688069A9B2084001
:10469000A9B2884201D1012000E0002090B9002099
:1046A0002063202084F83D00002084F83E00206C28
:1046B00040F02000206400BF002084F83C0000BFD0
:1046C0000120C8E7FFE7C5F3074001280AD12068A9
:1046D0004069A9B20840A9B2884201D101200BE08B
:1046E000002009E020688069A9B20840A9B2884288
:1046F00001D1012000E0002000288BD00020AAE793
:1047000008B5014600200090104800681922B0FB4F
:10471000F2F04FF47A72B0FBF2F000EB8000009000
:1047200000BF0098401E0090009828B9086C40F027
:1047300020000864012008BD0868006800F40070CB
:10474000B0F5007FEDD00020F5E700000C00002060
:1047500070B504460D46164625E02046FFF7D6F80C
:1047600008B1012070BD681CE8B1FCF773FF801B25
:10477000A84200D8BDB920684069C0F3C01090B904
:1047800000202063202084F83D00002084F83E00B3
:10479000206C40F02000206400BF002084F83C0022
:1047A00000BF0120DEE720684069C0F3C010002888
:1047B000D3D00020D6E7000010B5114800780128BA
:1047C00000D110BD04210F48FCF736FF80B914203A
:1047D000FCF78EFD04210B48FCF72EFF70B90A4848
:1047E000007858B90120064908700749087005E0AB
:1047F0000348007810B900200349087000BFE0E7C3
:10480000AA00002000080140AB0000200EB50020E7
:104810000090019002901148114908600021104851
:104820008160017301754FF46021C16100200C4962
:10483000486001210A480161FCF7A8FA08B1FCF7B9
:10484000C6F80120009001900020029069460448BB
:10485000FCF7ECF908B1FCF7BAF80EBD00240140F2
:10486000AC00002008B500BF0E48406940F00100D0
:104870000C4948610846406900F00100009000BF03
:1048800000BF002211460E20FDF74EFC0E20FDF762
:104890003BFC002211460F20FDF746FC0F20FDF7E0
:1048A00033FC08BD0010024000B585B00020019027
:1048B00002900390049000BF4448806940F01000CB
:1048C000424988610846806900F01000009000BFEE
:1048D00000BF00BF0846806940F02000886108469C
:1048E000806900F02000009000BF00BF00BF0846B4
:1048F000806940F0040088610846806900F0040087
:10490000009000BF00BF00BF0846806940F008006B
:1049100088610846806900F00800009000BF00BF71
:1049200000224FF400512A48FCF78EFE0022B021ED
:104930002848FCF789FE00224FF4E0412648FCF7A6
:1049400083FE4FF40050019001200290002003905C
:104950000220049001A91E48FCF7DEFC052001900E
:1049600000200290039001A91A48FCF7D5FC3020E2
:1049700001900120029003900220049001A91548A3
:10498000FCF7CAFC802001900120029000200390D7
:104990000220049001A90F48FCF7BEFC0120019001
:1049A00000200290039001A90B48FCF7B5FC4FF4DE
:1049B000704001900120029000200390022004909A
:1049C00001A90548FCF7A8FC05B000BD0010024095
:1049D0000010014000080140000C014010B50B48D8
:1049E0000B4908600B484860002109488160C1609C
:1049F0004FF480410161002141618161C161016227
:104A0000FCF78EFF08B1FBF7E2FF10BD0058004035
:104A1000DC000020801A060000B587B0002003905B
:104A20000490059006900190029015481549086081
:104A30004720486000211348816040F2CF71C16077
:104A40000021016141618161FEF70CF808B1FBF7BB
:104A5000BEFF4FF48050039003A90A48FEF7CFF839
:104A600008B1FBF7B4FF00200190029001A90548AE
:104A7000FDF7B6FF08B1FBF7AAFF07B000BD0000C5
:104A8000002C01407401002000B58DB00020099079
:104A90000A900B900C90079008901C216846FBF739
:104AA00089FC2048204908604720486000211E48B2
:104AB000816040F2CF71C16000210161802181617C
:104AC000FDF7D0FF08B1FBF782FF4FF4805009904B
:104AD00009A91548FEF793F808B1FBF778FF1248CB
:104AE000FEF799FA08B1FBF772FF002007900890D3
:104AF00007A90D48FDF774FF08B1FBF768FF6020B8
:104B0000009000200190029004900022694606481F
:104B1000FEF7FFF908B1FBF75AFF0348FEF7ACF9BF
:104B20000DB000BD00040040BC01002000B58DB0F8
:104B3000002009900A900B900C90079008901C217F
:104B40006846FBF737FC2048204908600020486091
:104B500000211E4881604FF6FF71C1600021016194
:104B60008161FDF77FFF08B1FBF731FF4FF4805003
:104B7000099009A91548FEF742F808B1FBF727FF8D
:104B80001248FEF748FA08B1FBF721FF0020079012
:104B9000089007A90D48FDF723FF08B1FBF717FFA1
:104BA000602000900020019002900490002269464D
:104BB0000648FEF7AEF908B1FBF709FF0348FEF718
:104BC0005BF90DB000BD00000008004004020020A9
:104BD00010B50B480B4908604FF4E13048600021E4
:104BE00008488160C16001610C214161002181613F
:104BF000C161FEF798FB08B1FBF7E9FE10BD0000AC
:104C0000003801404C02002000BFFEE700BFFEE775
:104C100070B5134600220024002805DB7F2803DC42
:104C2000002901DB3F2900DD70BD0D46CE1701EBE9
:104C30005676C6F3C702CE1701EB5676F610A1EBF7
:104C4000C606F4B2012B0BD1134D05EBC005AD5CCC
:104C50000126A6403543104E06EBC006B55418E0B9
:104C6000022B0BD10C4D05EBC005AD5C0126A64017
:104C70007540094E06EBC006B5540AE0064D05EB3B
:104C8000C005AE5C0125A540AE43034D05EBC00554
:104C9000AE5400BFC8E70000D80200201CB5C820F1
:104CA000FCF726FB1D20054901230022CDE9001059
:104CB00078210348FDF744F81CBD00006B0000207C
:104CC000DC00002010B50446012C05D1FF22810232
:104CD0000548FBF745FB05E024B94FF48061024825
:104CE000FBF746FB10BD0000D802002070B512484B
:104CF000007800BB002413E02146002000F026F8D5
:104D0000002509E00D4800EBC500005D0C4901EBF2
:104D1000C4114855681C85B2802DF3DB601CC4B2F9
:104D2000082CE9DB0120044908700423054A782196
:104D30000548FCF7FBFE70BD6A000020D802002089
:104D4000D8060020D80A0020DC0000200022094BF1
:104D500003F8212001F1B00203EB81035A70102205
:104D6000044B03EB81039A700022024B03EB810397
:104D7000DA707047D80A00202DE9FF4F82B016463E
:104D80001F46384607EBD0714910039A514301F092
:104D9000FF0802987843C4B2A3460C2F3BD1A6F17A
:104DA0002000C6B2002533E006EB4600424901EB85
:104DB000800010F805A04FF0000923E00AF0800001
:104DC00030B1012261B24FFA88F0FFF721FF05E010
:104DD000002261B24FFA88F0FFF71AFF4FEA4A60EB
:104DE0004FEA106A601CC4B2A4EB0B000C2805D17A
:104DF0005C4608F1010000F0FF0806E009F101003F
:104E000000F0FF09B9F1080FD8DB00BF681CC5B27C
:104E10000C2DC9DB4DE0202F4BD1202E02D127488D
:104E2000019006E0042000EB8600244901EB00100D
:104E3000019000253BE04FF0000933E009EB05113C
:104E4000019810F801A00020009023E00AF08000F3
:104E500030B1012261B24FFA88F0FFF7D9FE05E0C8
:104E6000002261B24FFA88F0FFF7D2FE4FEA4A60A3
:104E70004FEA106A601CC4B2A4EB0B00202805D1D5
:104E80005C4608F1010000F0FF0806E00098401CB5
:104E9000C0B2009000980828D8DB00BF09F10100DB
:104EA00000F0FF09B9F1100FC8DB681CC5B2042D72
:104EB000C1DB06B0BDE8F08F2464000898680008E4
:104EC0002DE9F04F82460D4690469946099E4FF0D7
:104ED000000B002434E0301B401EC1B20A2000F059
:104EE000A8FEB8FBF0F00A21B0FBF1F201FB1207BB
:104EF000BBF1000F18D1701EA04215DD97B9B9F1B2
:104F0000000F07D12819C1B2202250460A9BFFF793
:104F100033FF06E02819C1B2302250460A9BFFF742
:104F20002BFF0BE04FF0010B07F13000C2B2281944
:104F3000C1B250460A9BFFF71FFF00BF601CC4B2FE
:104F4000B442C8DBBDE8F08F2DE9F04107460C46BE
:104F50001546984600260EE0AA5D4346214638468F
:104F6000FFF70AFF601CC4B2142C02DD0024781C79
:104F7000C7B2701CC6B2A85D0028EDD1BDE8F081B3
:104F80002DE9F05F04460D4616463146284601F0ED
:104F9000BFF9E0600021606801F088F922D233494E
:104FA000E06801F0B7F88246616900F017FF6061C0
:104FB0006168E06900F080FF80466168206A00F067
:104FC0007BFF81464146606901F070F902D2C4F866
:104FD000148006E04946606901F068F801D2C4F81F
:104FE000149001E000206061D4E9030101F090F920
:104FF00080461E4900F060FF074639461C4801F014
:1050000089F880461B48616A01F084F88146414670
:1050100000F0E4FE6062616AA06801F07BF88146FE
:105020006169606801F076F88246E168206801F005
:1050300071F88346514600F0D1FE8046494600F0A3
:10504000CDFEA061D4E9060101F030F902D2E06999
:10505000A06106E0216AA06901F028F801D2206A67
:10506000A061E0682061A069BDE8F09F0AD7A33C79
:10507000CCCC4C3ECDCC4C3F0021C16001614161A4
:10508000816141627047000010B564280BDC064B5B
:105090001B68D96A4B1C43436424B3FBF4F2024BF4
:1050A0001B685A6300BF10BDBC01002010B5642806
:1050B0000BDC064B1B68D96A4B1C43436424B3FBCF
:1050C000F4F2024B1B685A6300BF10BD04020020BB
:1050D0002DE9F0410446FDF7DDF90546B5FBF4F096
:1050E0004FF6FF71B0FBF1F0471C07FB04F0B5FB76
:1050F000F0F0461E781E07490968886200BF05481F
:105100000068C6620348C66000BF0120024908600B
:10511000BDE8F081BC010020140400402DE9F041FD
:105120000446FDF7B7F90546B5FBF4F04FF6FF71FD
:10513000B0FBF1F0471C07FB04F0B5FBF0F0461E96
:10514000781E07490968886200BF05480068C66282
:105150000348C66000BF012002490860BDE8F08135
:10516000040200201408004010B586B00020344925
:10517000344A12888854334800880A2855DB32485C
:105180003249334A334BCDE90132CDE9031032487D
:10519000324B334A33A100902948FBF71DF80446EF
:1051A000072C2FD12E4800782C49097808442A4929
:1051B00009780844274909780844254909780844AA
:1051C0002249097808442E490870084600781E498B
:1051D0000978884203D101202A49087024E0002080
:1051E0002849087040F2E7301D4908601B490860F3
:1051F00019490860174908600020154908601349DB
:10520000087011E000201F49087040F2E73014498F
:10521000086012490860104908600E4908600020C3
:105220000B4908600949087000BF00200549088043
:105230001549087040210248FBF7BCF806B010BDC4
:10524000F80B00208E00002091000020A800002014
:10525000A4000020A00000209C0000209800002056
:105260009400002024542C25642C25642C25642CC7
:1052700025642C25642C256868752C2568687500C4
:1052800092000020A900002090000020704700003C
:1052900008B508490968C9084FF47A72B1FBF2F100
:1052A0004143009100BF00BF00994A1E00920029AF
:1052B000F9D108BD0C000020704710B5FCF7B4FE12
:1052C00010BD00B593B0282109A8FBF773F814218D
:1052D00004A8FBF76FF80020009001900290039063
:1052E0000120099000040A9000200B9001200D90ED
:1052F00002201090C10311914FF4E011129109A8FE
:10530000FDF720F908B1FBF762FB0F2004900220A3
:105310000590002006904FF48060079000200890D0
:10532000022104A8FCF7EAFF08B1FBF750FB0220BA
:105330000090800302906846FCF748FF08B1FBF735
:1053400046FB13B000BD704710B50248FDF7DEFC08
:1053500010BD0000BC01002010B502681C4B984233
:1053600008D0B0F1804F05D01A4B984202D01A4BAA
:10537000984203D122F070024B681A43144B9842B2
:1053800008D0B0F1804F05D0124B984202D0124B9A
:10539000984203D122F44072CB681A4322F0800372
:1053A0004C6943EA040202608B68C3620B68836243
:1053B000074B984201D10B690363012343610369E1
:1053C00003F001031BB1036923F00103036110BD66
:1053D000002C0140000400400008004030B501F0FE
:1053E0001F05012404FA05F3046A9C430462046A5D
:1053F00001F01F0502FA05F52C43046230BD30B5FB
:105400000C46816821F47F4142EA03252543294364
:10541000816030BD0A46816821F0700142F00703C7
:10542000194381607047000030B5026A056A25F0B3
:10543000010505624368846924F0700424F00304C4
:105440000D682C4322F002028D682A430D4DA842BC
:1054500006D100BF22F00802CD682A4322F00402E0
:10546000084DA84207D123F4807323F400734D69DB
:105470002B438D692B43436084614D684563026211
:1054800030BD0000002C014030B5026A056A25F0ED
:10549000100505624368846924F4E04424F44074F0
:1054A0000D6844EA052422F020028D6842EA0512C4
:1054B0000E4DA84207D100BF22F08002CD6842EA1B
:1054C000051222F04002094DA84209D123F480635D
:1054D00023F400634D6943EA85038D6943EA85033C
:1054E000436084614D688563026230BD002C0140D9
:1054F00030B5026A056A25F4807505624368C4699F
:1055000024F0700424F003040D682C4322F400728C
:105510008D6842EA05220F4DA84207D100BF22F450
:105520000062CD6842EA052222F48062094DA84259
:1055300009D123F4805323F400534D6943EA051342
:105540008D6943EA05134360C4614D68C563026217
:1055500030BD0000002C014030B5036A056A25F417
:10556000805505624468C26922F4E04222F4407228
:105570000D6842EA052223F400538D6843EA05339F
:10558000064DA84204D124F480444D6944EA8514B0
:105590004460C2614D680564036230BD002C014067
:1055A00030B50B461446026A056A25F0010505620E
:1055B000816921F0F00141EA041122F00A021A4344
:1055C0008161026230BD30B50B461446026A056A3D
:1055D00025F010050562816921F4704141EA04312A
:1055E00022F0A00242EA03128161026230BD70B56E
:1055F00006460025746A20684069C0F3C01594F817
:105600004100212805D125B10020E084204600F08A
:10561000B8F820684069C0F3801594F84200222849
:1056200005D125B10020E085204600F074F8606CBB
:1056300040F0100060642046FDF774FE70BD70B548
:1056400005466C6A2868006800F02000002842D1F6
:10565000E08500BF00BF21680C3151E8001F21F434
:10566000807021680C3141E80002002AF3D100BFAC
:1056700000BF00BF2168143151E8001F21F0010074
:105680002168143141E80002002AF3D100BF00BFB5
:1056900000BF2168143151E8001F21F0400021684B
:1056A000143141E80002002AF3D100BF202084F821
:1056B0004200206B01280ED100BF00BF21680C31D1
:1056C00051E8001F21F0100021680C3141E8000270
:1056D000002AF3D100BF00206063206B012804D1B1
:1056E000A18D2046FDF7D8FD02E02046FDF7CEFE55
:1056F00070BD70B505466C6A01206063206B01289F
:1057000005D1A08D41082046FDF7C6FD02E02046E8
:10571000FDF7BDFE70BD00BF00BF02680C3252E84D
:10572000002F22F4907102680C3242E80013002B23
:10573000F3D100BF00BF00BF0268143252E8002F4F
:1057400022F001010268143242E80013002BF3D169
:1057500000BF016B01290ED100BF00BF02680C32EF
:1057600052E8002F22F0100102680C3242E80013C8
:10577000002BF3D100BF202180F8421000210163EB
:10578000704700BF00BF02680C3252E8002F22F0C1
:10579000C00102680C3242E80013002BF3D100BFB5
:1057A000202180F84110704770B5044621680969CE
:1057B00021F44051E2681143226811612269A16815
:1057C0001143626941EA02052168C96841F20C622D
:1057D000914329432268D1602168496921F44071CD
:1057E000A2691143226851612D4A2168914202D178
:1057F000FCF760FE01E0FCF74DFE00EBC00101EBA1
:10580000001162689200B1FBF2F100EBC00202EB02
:10581000001263689B00B2FBF3F26423B2FBF3F265
:1058200002EBC20303EB0212A1EB8201322202EB74
:1058300001116422B1FBF2F101F0F00100EBC002B2
:1058400002EB001263689B00B2FBF3F26423B2FB2D
:10585000F3F201EB021200EBC00101EB00116368EF
:105860009B00B1FBF3F100EBC00303EB0013666890
:10587000B600B3FBF6F36426B3FBF6F303EBC30603
:1058800006EB0313A1EB8301322303EB0111642325
:10589000B1FBF3F101F00F0111442268916070BD7A
:1058A0000038014077B581B0044615460298A062E1
:1058B000A58500206064222084F842002848E16B1E
:1058C00088622848E16BC8622748E16B08630020C2
:1058D000E16B486302AE32682368191D2B46E06B0A
:1058E000FBF7B8FC00BF0020009020680068009023
:1058F00020684068009000BF00BF206970B100BF01
:1059000000BF21680C3151E8001F41F4807021680C
:105910000C3141E80002002AF3D100BF00BF00BFF4
:105920002168143151E8001F41F001002168143151
:1059300041E80002002AF3D100BF00BF00BF216888
:10594000143151E8001F41F040002168143141E852
:105950000002002AF3D100BF002004B070BD000097
:105960003F560008F3560008EF55000810B50B48E5
:10597000FDF793FC0948C06B0068006840F0200008
:105980000649C96B09680860802205490348FDF78C
:1059900067FD08B1FBF71BF810BD00004C020020AA
:1059A000780B00202DE9F0412348C06B0068406867
:1059B00086B2C6F1800087B2002534E0681C85B24B
:1059C0001E481F490988445C1D490988481CC117A5
:1059D00000EB5161C911A0EBC111194A1180262CAD
:1059E0000AD100201749088001201749087040217A
:1059F0001648FAF7DFFC16E01348007858B1114852
:105A000000883F2807DA0F4801880088401C0D4AAB
:105A100010800E484454232C04D10B48007808B160
:105A2000FFF7A2FB00BF06480088B84201D0802DD6
:105A3000C4DBBDE8F08100004C020020780B0020A0
:105A40008C0000208E00002090000020F80B002029
:105A500000BFFEE702480068C0F302207047000064
:105A60000CED00E010B5002804DB0A07130E054A10
:105A7000135406E00A07140E034A00F00F031B1F1D
:105A8000D45410BD00E400E018ED00E010B5002291
:105A90004FF480510548FBF7D7FD0548FDF796F810
:105AA00000210348FDF77EFB10BD0000000C014003
:105AB000BC01002010B5002280210548FBF7C4FD81
:105AC0000448FDF783F800210248FDF76BFB10BD89
:105AD00000080140040200201CB5FEF76DFE2648B8
